{
  "items": [
    {
      "timestamp": "2024-06-02T17:00:44.000000Z",
      "fee": {
        "type": "actual",
        "value": "63591000"
      },
      "gas_limit": "89975",
      "block": 20149035,
      "status": "ok",
      "method": "claimRewards",
      "confirmations": 11923,
      "type": 0,
      "exchange_rate": "0.094151",
      "to": {
        "ens_domain_name": null,
        "hash": "0xe042DC9d91B5ce6E63579ae1287E993cDf41F8cE",
        "implementation_name": null,
        "is_contract": true,
        "is_verified": true,
        "metadata": null,
        "name": "ApeStaking",
        "private_tags": [],
        "public_tags": [],
        "watchlist_names": []
      },
      "tx_burnt_fee": null,
      "max_fee_per_gas": null,
      "result": "success",
      "hash": "0xa62aaf28186bd44eaf81b62bee1560188f03b5074fe35baeb063328447a94d6f",
      "gas_price": "1000",
      "priority_fee": null,
      "base_fee_per_gas": null,
      "from": {
        "ens_domain_name": null,
        "hash": "0x843243fEc3dC46d9EF242a138Bcb5E3dcE5FFd10",
        "implementation_name": null,
        "is_contract": false,
        "is_verified": false,
        "metadata": null,
        "name": null,
        "private_tags": [],
        "public_tags": [],
        "watchlist_names": []
      },
      "token_transfers": null,
      "tx_types": [
        "contract_call"
      ],
      "gas_used": "63591",
      "created_contract": null,
      "position": 0,
      "nonce": 40,
      "has_error_in_internal_txs": null,
      "actions": [],
      "decoded_input": {
        "method_call": "claimRewards()",
        "method_id": "372500ab",
        "parameters": []
      },
      "token_transfers_overflow": null,
      "raw_input": "0x372500ab",
      "value": "0",
      "max_priority_fee_per_gas": null,
      "revert_reason": null,
      "confirmation_duration": [
        0,
        1000
      ],
      "tx_tag": null
    },
    {
      "timestamp": "2024-06-02T17:00:13.000000Z",
      "fee": {
        "type": "actual",
        "value": "63591000"
      },
      "gas_limit": "89975",
      "block": 20149004,
      "status": "ok",
      "method": "claimRewards",
      "confirmations": 11954,
      "type": 0,
      "exchange_rate": "0.094151",
      "to": {
        "ens_domain_name": null,
        "hash": "0xe042DC9d91B5ce6E63579ae1287E993cDf41F8cE",
        "implementation_name": null,
        "is_contract": true,
        "is_verified": true,
        "metadata": null,
        "name": "ApeStaking",
        "private_tags": [],
        "public_tags": [],
        "watchlist_names": []
      },
      "tx_burnt_fee": null,
      "max_fee_per_gas": null,
      "result": "success",
      "hash": "0x973cbb2f48b6cdecb29264a5861cc6483f04bc91b596f41262f281a82341228f",
      "gas_price": "1000",
      "priority_fee": null,
      "base_fee_per_gas": null,
      "from": {
        "ens_domain_name": null,
        "hash": "0xabE603A6b162f468E49bd42D0A1261e1c7ddec00",
        "implementation_name": null,
        "is_contract": false,
        "is_verified": false,
        "metadata": null,
        "name": null,
        "private_tags": [],
        "public_tags": [],
        "watchlist_names": []
      },
      "token_transfers": null,
      "tx_types": [
        "contract_call"
      ],
      "gas_used": "63591",
      "created_contract": null,
      "position": 0,
      "nonce": 75,
      "has_error_in_internal_txs": null,
      "actions": [],
      "decoded_input": {
        "method_call": "claimRewards()",
        "method_id": "372500ab",
        "parameters": []
      },
      "token_transfers_overflow": null,
      "raw_input": "0x372500ab",
      "value": "0",
      "max_priority_fee_per_gas": null,
      "revert_reason": null,
      "confirmation_duration": [
        0,
        1000
      ],
      "tx_tag": null
    },
    {
      "timestamp": "2024-06-01T18:36:58.000000Z",
      "fee": {
        "type": "actual",
        "value": "95386500000000"
      },
      "gas_limit": "112468",
      "block": 20068409,
      "status": "ok",
      "method": "claimRewards",
      "confirmations": 92549,
      "type": 0,
      "exchange_rate": "0.094151",
      "to": {
        "ens_domain_name": null,
        "hash": "0xe042DC9d91B5ce6E63579ae1287E993cDf41F8cE",
        "implementation_name": null,
        "is_contract": true,
        "is_verified": true,
        "metadata": null,
        "name": "ApeStaking",
        "private_tags": [],
        "public_tags": [],
        "watchlist_names": []
      },
      "tx_burnt_fee": null,
      "max_fee_per_gas": null,
      "result": "success",
      "hash": "0x534263fbbcf8086cd007d0715c73b97941677c2274903312397ff2220c58bc39",
      "gas_price": "1500000000",
      "priority_fee": null,
      "base_fee_per_gas": null,
      "from": {
        "ens_domain_name": null,
        "hash": "0x6a8c9CeCD93E84E6764c49c7a5355Fae9ab514f2",
        "implementation_name": null,
        "is_contract": false,
        "is_verified": false,
        "metadata": null,
        "name": null,
        "private_tags": [],
        "public_tags": [],
        "watchlist_names": []
      },
      "token_transfers": null,
      "tx_types": [
        "contract_call"
      ],
      "gas_used": "63591",
      "created_contract": null,
      "position": 0,
      "nonce": 2921,
      "has_error_in_internal_txs": null,
      "actions": [],
      "decoded_input": {
        "method_call": "claimRewards()",
        "method_id": "372500ab",
        "parameters": []
      },
      "token_transfers_overflow": null,
      "raw_input": "0x372500ab",
      "value": "0",
      "max_priority_fee_per_gas": null,
      "revert_reason": null,
      "confirmation_duration": [
        0,
        1000
      ],
      "tx_tag": null
    },
    {
      "timestamp": "2024-06-01T18:26:02.000000Z",
      "fee": {
        "type": "actual",
        "value": "95386500000000"
      },
      "gas_limit": "89975",
      "block": 20067753,
      "status": "ok",
      "method": "claimRewards",
      "confirmations": 93205,
      "type": 0,
      "exchange_rate": "0.094151",
      "to": {
        "ens_domain_name": null,
        "hash": "0xe042DC9d91B5ce6E63579ae1287E993cDf41F8cE",
        "implementation_name": null,
        "is_contract": true,
        "is_verified": true,
        "metadata": null,
        "name": "ApeStaking",
        "private_tags": [],
        "public_tags": [],
        "watchlist_names": []
      },
      "tx_burnt_fee": null,
      "max_fee_per_gas": null,
      "result": "success",
      "hash": "0xfbe7a2ee5081b6bc94728dd0ac64520ea3a4d99bb27010f4bfe1f20d6e7aefc1",
      "gas_price": "1500000000",
      "priority_fee": null,
      "base_fee_per_gas": null,
      "from": {
        "ens_domain_name": null,
        "hash": "0x843243fEc3dC46d9EF242a138Bcb5E3dcE5FFd10",
        "implementation_name": null,
        "is_contract": false,
        "is_verified": false,
        "metadata": null,
        "name": null,
        "private_tags": [],
        "public_tags": [],
        "watchlist_names": []
      },
      "token_transfers": null,
      "tx_types": [
        "contract_call"
      ],
      "gas_used": "63591",
      "created_contract": null,
      "position": 0,
      "nonce": 35,
      "has_error_in_internal_txs": null,
      "actions": [],
      "decoded_input": {
        "method_call": "claimRewards()",
        "method_id": "372500ab",
        "parameters": []
      },
      "token_transfers_overflow": null,
      "raw_input": "0x372500ab",
      "value": "0",
      "max_priority_fee_per_gas": null,
      "revert_reason": null,
      "confirmation_duration": [
        0,
        1000
      ],
      "tx_tag": null
    },
    {
      "timestamp": "2024-06-01T18:25:18.000000Z",
      "fee": {
        "type": "actual",
        "value": "95386500000000"
      },
      "gas_limit": "89975",
      "block": 20067709,
      "status": "ok",
      "method": "claimRewards",
      "confirmations": 93249,
      "type": 0,
      "exchange_rate": "0.094151",
      "to": {
        "ens_domain_name": null,
        "hash": "0xe042DC9d91B5ce6E63579ae1287E993cDf41F8cE",
        "implementation_name": null,
        "is_contract": true,
        "is_verified": true,
        "metadata": null,
        "name": "ApeStaking",
        "private_tags": [],
        "public_tags": [],
        "watchlist_names": []
      },
      "tx_burnt_fee": null,
      "max_fee_per_gas": null,
      "result": "success",
      "hash": "0x0f7a3192fba12f3e1e32766a1b15d9e211e5194143e31ec1444817b5f6e6446c",
      "gas_price": "1500000000",
      "priority_fee": null,
      "base_fee_per_gas": null,
      "from": {
        "ens_domain_name": null,
        "hash": "0xabE603A6b162f468E49bd42D0A1261e1c7ddec00",
        "implementation_name": null,
        "is_contract": false,
        "is_verified": false,
        "metadata": null,
        "name": null,
        "private_tags": [],
        "public_tags": [],
        "watchlist_names": []
      },
      "token_transfers": null,
      "tx_types": [
        "contract_call"
      ],
      "gas_used": "63591",
      "created_contract": null,
      "position": 0,
      "nonce": 71,
      "has_error_in_internal_txs": null,
      "actions": [],
      "decoded_input": {
        "method_call": "claimRewards()",
        "method_id": "372500ab",
        "parameters": []
      },
      "token_transfers_overflow": null,
      "raw_input": "0x372500ab",
      "value": "0",
      "max_priority_fee_per_gas": null,
      "revert_reason": null,
      "confirmation_duration": [
        0,
        1000
      ],
      "tx_tag": null
    },
    {
      "timestamp": "2024-06-01T10:11:38.000000Z",
      "fee": {
        "type": "actual",
        "value": "80691000"
      },
      "gas_limit": "107342",
      "block": 20038089,
      "status": "ok",
      "method": "claimRewards",
      "confirmations": 122869,
      "type": 0,
      "exchange_rate": "0.094151",
      "to": {
        "ens_domain_name": null,
        "hash": "0xe042DC9d91B5ce6E63579ae1287E993cDf41F8cE",
        "implementation_name": null,
        "is_contract": true,
        "is_verified": true,
        "metadata": null,
        "name": "ApeStaking",
        "private_tags": [],
        "public_tags": [],
        "watchlist_names": []
      },
      "tx_burnt_fee": null,
      "max_fee_per_gas": null,
      "result": "success",
      "hash": "0xd5352a7d0399b2f09b82749070a1e2b399556eaefe520b141a00556a6ebe142a",
      "gas_price": "1000",
      "priority_fee": null,
      "base_fee_per_gas": null,
      "from": {
        "ens_domain_name": null,
        "hash": "0x244A93D0f7F27b845060abEd22B23aD914C71B54",
        "implementation_name": null,
        "is_contract": false,
        "is_verified": false,
        "metadata": null,
        "name": null,
        "private_tags": [],
        "public_tags": [],
        "watchlist_names": []
      },
      "token_transfers": null,
      "tx_types": [
        "contract_call"
      ],
      "gas_used": "80691",
      "created_contract": null,
      "position": 0,
      "nonce": 61,
      "has_error_in_internal_txs": null,
      "actions": [],
      "decoded_input": {
        "method_call": "claimRewards()",
        "method_id": "372500ab",
        "parameters": []
      },
      "token_transfers_overflow": null,
      "raw_input": "0x372500ab",
      "value": "0",
      "max_priority_fee_per_gas": null,
      "revert_reason": null,
      "confirmation_duration": [
        0,
        1000
      ],
      "tx_tag": null
    },
    {
      "timestamp": "2024-05-31T19:44:50.000000Z",
      "fee": {
        "type": "actual",
        "value": "95386500000000"
      },
      "gas_limit": "112468",
      "block": 19986081,
      "status": "ok",
      "method": "claimRewards",
      "confirmations": 174877,
      "type": 0,
      "exchange_rate": "0.094151",
      "to": {
        "ens_domain_name": null,
        "hash": "0xe042DC9d91B5ce6E63579ae1287E993cDf41F8cE",
        "implementation_name": null,
        "is_contract": true,
        "is_verified": true,
        "metadata": null,
        "name": "ApeStaking",
        "private_tags": [],
        "public_tags": [],
        "watchlist_names": []
      },
      "tx_burnt_fee": null,
      "max_fee_per_gas": null,
      "result": "success",
      "hash": "0xf82ff41cb04dbdd92bb7237bedd1424e99ecac6712b09f3c82e9ee63831918c8",
      "gas_price": "1500000000",
      "priority_fee": null,
      "base_fee_per_gas": null,
      "from": {
        "ens_domain_name": null,
        "hash": "0x6a8c9CeCD93E84E6764c49c7a5355Fae9ab514f2",
        "implementation_name": null,
        "is_contract": false,
        "is_verified": false,
        "metadata": null,
        "name": null,
        "private_tags": [],
        "public_tags": [],
        "watchlist_names": []
      },
      "token_transfers": null,
      "tx_types": [
        "contract_call"
      ],
      "gas_used": "63591",
      "created_contract": null,
      "position": 0,
      "nonce": 2917,
      "has_error_in_internal_txs": null,
      "actions": [],
      "decoded_input": {
        "method_call": "claimRewards()",
        "method_id": "372500ab",
        "parameters": []
      },
      "token_transfers_overflow": null,
      "raw_input": "0x372500ab",
      "value": "0",
      "max_priority_fee_per_gas": null,
      "revert_reason": null,
      "confirmation_duration": [
        0,
        1000
      ],
      "tx_tag": null
    },
    {
      "timestamp": "2024-05-30T21:18:44.000000Z",
      "fee": {
        "type": "actual",
        "value": "95386500000000"
      },
      "gas_limit": "112468",
      "block": 19905315,
      "status": "ok",
      "method": "claimRewards",
      "confirmations": 255643,
      "type": 0,
      "exchange_rate": "0.094151",
      "to": {
        "ens_domain_name": null,
        "hash": "0xe042DC9d91B5ce6E63579ae1287E993cDf41F8cE",
        "implementation_name": null,
        "is_contract": true,
        "is_verified": true,
        "metadata": null,
        "name": "ApeStaking",
        "private_tags": [],
        "public_tags": [],
        "watchlist_names": []
      },
      "tx_burnt_fee": null,
      "max_fee_per_gas": null,
      "result": "success",
      "hash": "0x0203f6feac128ed8444af2b449d0d7d2bf2c0c16c6ce63978d343ea398e939ad",
      "gas_price": "1500000000",
      "priority_fee": null,
      "base_fee_per_gas": null,
      "from": {
        "ens_domain_name": null,
        "hash": "0x6a8c9CeCD93E84E6764c49c7a5355Fae9ab514f2",
        "implementation_name": null,
        "is_contract": false,
        "is_verified": false,
        "metadata": null,
        "name": null,
        "private_tags": [],
        "public_tags": [],
        "watchlist_names": []
      },
      "token_transfers": null,
      "tx_types": [
        "contract_call"
      ],
      "gas_used": "63591",
      "created_contract": null,
      "position": 0,
      "nonce": 2913,
      "has_error_in_internal_txs": null,
      "actions": [],
      "decoded_input": {
        "method_call": "claimRewards()",
        "method_id": "372500ab",
        "parameters": []
      },
      "token_transfers_overflow": null,
      "raw_input": "0x372500ab",
      "value": "0",
      "max_priority_fee_per_gas": null,
      "revert_reason": null,
      "confirmation_duration": [
        0,
        1000
      ],
      "tx_tag": null
    },
    {
      "timestamp": "2024-05-30T20:09:06.000000Z",
      "fee": {
        "type": "actual",
        "value": "63591000"
      },
      "gas_limit": "89975",
      "block": 19901137,
      "status": "ok",
      "method": "claimRewards",
      "confirmations": 259821,
      "type": 0,
      "exchange_rate": "0.094151",
      "to": {
        "ens_domain_name": null,
        "hash": "0xe042DC9d91B5ce6E63579ae1287E993cDf41F8cE",
        "implementation_name": null,
        "is_contract": true,
        "is_verified": true,
        "metadata": null,
        "name": "ApeStaking",
        "private_tags": [],
        "public_tags": [],
        "watchlist_names": []
      },
      "tx_burnt_fee": null,
      "max_fee_per_gas": null,
      "result": "success",
      "hash": "0x127d2f354972e960a40271db6b03dfdbe114b26619d54a09c72f9771440af4ab",
      "gas_price": "1000",
      "priority_fee": null,
      "base_fee_per_gas": null,
      "from": {
        "ens_domain_name": null,
        "hash": "0x843243fEc3dC46d9EF242a138Bcb5E3dcE5FFd10",
        "implementation_name": null,
        "is_contract": false,
        "is_verified": false,
        "metadata": null,
        "name": null,
        "private_tags": [],
        "public_tags": [],
        "watchlist_names": []
      },
      "token_transfers": null,
      "tx_types": [
        "contract_call"
      ],
      "gas_used": "63591",
      "created_contract": null,
      "position": 0,
      "nonce": 25,
      "has_error_in_internal_txs": null,
      "actions": [],
      "decoded_input": {
        "method_call": "claimRewards()",
        "method_id": "372500ab",
        "parameters": []
      },
      "token_transfers_overflow": null,
      "raw_input": "0x372500ab",
      "value": "0",
      "max_priority_fee_per_gas": null,
      "revert_reason": null,
      "confirmation_duration": [
        0,
        1000
      ],
      "tx_tag": null
    },
    {
      "timestamp": "2024-05-30T20:08:21.000000Z",
      "fee": {
        "type": "actual",
        "value": "63591000"
      },
      "gas_limit": "89975",
      "block": 19901092,
      "status": "ok",
      "method": "claimRewards",
      "confirmations": 259866,
      "type": 0,
      "exchange_rate": "0.094151",
      "to": {
        "ens_domain_name": null,
        "hash": "0xe042DC9d91B5ce6E63579ae1287E993cDf41F8cE",
        "implementation_name": null,
        "is_contract": true,
        "is_verified": true,
        "metadata": null,
        "name": "ApeStaking",
        "private_tags": [],
        "public_tags": [],
        "watchlist_names": []
      },
      "tx_burnt_fee": null,
      "max_fee_per_gas": null,
      "result": "success",
      "hash": "0xfd8468351d593f65bcc51b3f930af37d56edb44bc661ce8e343d0451bcfdeccf",
      "gas_price": "1000",
      "priority_fee": null,
      "base_fee_per_gas": null,
      "from": {
        "ens_domain_name": null,
        "hash": "0xabE603A6b162f468E49bd42D0A1261e1c7ddec00",
        "implementation_name": null,
        "is_contract": false,
        "is_verified": false,
        "metadata": null,
        "name": null,
        "private_tags": [],
        "public_tags": [],
        "watchlist_names": []
      },
      "token_transfers": null,
      "tx_types": [
        "contract_call"
      ],
      "gas_used": "63591",
      "created_contract": null,
      "position": 0,
      "nonce": 51,
      "has_error_in_internal_txs": null,
      "actions": [],
      "decoded_input": {
        "method_call": "claimRewards()",
        "method_id": "372500ab",
        "parameters": []
      },
      "token_transfers_overflow": null,
      "raw_input": "0x372500ab",
      "value": "0",
      "max_priority_fee_per_gas": null,
      "revert_reason": null,
      "confirmation_duration": [
        0,
        1000
      ],
      "tx_tag": null
    },
    {
      "timestamp": "2024-05-30T03:46:17.000000Z",
      "fee": {
        "type": "actual",
        "value": "63591000"
      },
      "gas_limit": "89975",
      "block": 19842168,
      "status": "ok",
      "method": "claimRewards",
      "confirmations": 318790,
      "type": 0,
      "exchange_rate": "0.094151",
      "to": {
        "ens_domain_name": null,
        "hash": "0xe042DC9d91B5ce6E63579ae1287E993cDf41F8cE",
        "implementation_name": null,
        "is_contract": true,
        "is_verified": true,
        "metadata": null,
        "name": "ApeStaking",
        "private_tags": [],
        "public_tags": [],
        "watchlist_names": []
      },
      "tx_burnt_fee": null,
      "max_fee_per_gas": null,
      "result": "success",
      "hash": "0x12402a5ea39026078a8db53295f5a08af2a60de9642ca1dfc03eb06e53b8d5ed",
      "gas_price": "1000",
      "priority_fee": null,
      "base_fee_per_gas": null,
      "from": {
        "ens_domain_name": null,
        "hash": "0x0E5c0Ec436e1cE48FF41414d48cf20284157948c",
        "implementation_name": null,
        "is_contract": false,
        "is_verified": false,
        "metadata": null,
        "name": null,
        "private_tags": [],
        "public_tags": [],
        "watchlist_names": []
      },
      "token_transfers": null,
      "tx_types": [
        "contract_call"
      ],
      "gas_used": "63591",
      "created_contract": null,
      "position": 0,
      "nonce": 979,
      "has_error_in_internal_txs": null,
      "actions": [],
      "decoded_input": {
        "method_call": "claimRewards()",
        "method_id": "372500ab",
        "parameters": []
      },
      "token_transfers_overflow": null,
      "raw_input": "0x372500ab",
      "value": "0",
      "max_priority_fee_per_gas": null,
      "revert_reason": null,
      "confirmation_duration": [
        0,
        1000
      ],
      "tx_tag": null
    },
    {
      "timestamp": "2024-05-29T13:55:45.000000Z",
      "fee": {
        "type": "actual",
        "value": "95386500000000"
      },
      "gas_limit": "112468",
      "block": 19792336,
      "status": "ok",
      "method": "claimRewards",
      "confirmations": 368622,
      "type": 0,
      "exchange_rate": "0.094151",
      "to": {
        "ens_domain_name": null,
        "hash": "0xe042DC9d91B5ce6E63579ae1287E993cDf41F8cE",
        "implementation_name": null,
        "is_contract": true,
        "is_verified": true,
        "metadata": null,
        "name": "ApeStaking",
        "private_tags": [],
        "public_tags": [],
        "watchlist_names": []
      },
      "tx_burnt_fee": null,
      "max_fee_per_gas": null,
      "result": "success",
      "hash": "0xbfd226983700345e2bf5a824e71ed56269112b0f6520113fbebfad9d06b1e64f",
      "gas_price": "1500000000",
      "priority_fee": null,
      "base_fee_per_gas": null,
      "from": {
        "ens_domain_name": null,
        "hash": "0x6a8c9CeCD93E84E6764c49c7a5355Fae9ab514f2",
        "implementation_name": null,
        "is_contract": false,
        "is_verified": false,
        "metadata": null,
        "name": null,
        "private_tags": [],
        "public_tags": [],
        "watchlist_names": []
      },
      "token_transfers": null,
      "tx_types": [
        "contract_call"
      ],
      "gas_used": "63591",
      "created_contract": null,
      "position": 0,
      "nonce": 2910,
      "has_error_in_internal_txs": null,
      "actions": [],
      "decoded_input": {
        "method_call": "claimRewards()",
        "method_id": "372500ab",
        "parameters": []
      },
      "token_transfers_overflow": null,
      "raw_input": "0x372500ab",
      "value": "0",
      "max_priority_fee_per_gas": null,
      "revert_reason": null,
      "confirmation_duration": [
        0,
        1000
      ],
      "tx_tag": null
    },
    {
      "timestamp": "2024-05-29T13:55:24.000000Z",
      "fee": {
        "type": "actual",
        "value": "95386500000000"
      },
      "gas_limit": "112468",
      "block": 19792315,
      "status": "ok",
      "method": "claimRewards",
      "confirmations": 368643,
      "type": 0,
      "exchange_rate": "0.094151",
      "to": {
        "ens_domain_name": null,
        "hash": "0xe042DC9d91B5ce6E63579ae1287E993cDf41F8cE",
        "implementation_name": null,
        "is_contract": true,
        "is_verified": true,
        "metadata": null,
        "name": "ApeStaking",
        "private_tags": [],
        "public_tags": [],
        "watchlist_names": []
      },
      "tx_burnt_fee": null,
      "max_fee_per_gas": null,
      "result": "success",
      "hash": "0x11d97369fa1a635db009396a4363267a4c031a14c4f46e88c7c33a94df525cc8",
      "gas_price": "1500000000",
      "priority_fee": null,
      "base_fee_per_gas": null,
      "from": {
        "ens_domain_name": null,
        "hash": "0x6a8c9CeCD93E84E6764c49c7a5355Fae9ab514f2",
        "implementation_name": null,
        "is_contract": false,
        "is_verified": false,
        "metadata": null,
        "name": null,
        "private_tags": [],
        "public_tags": [],
        "watchlist_names": []
      },
      "token_transfers": null,
      "tx_types": [
        "contract_call"
      ],
      "gas_used": "63591",
      "created_contract": null,
      "position": 1,
      "nonce": 2909,
      "has_error_in_internal_txs": null,
      "actions": [],
      "decoded_input": {
        "method_call": "claimRewards()",
        "method_id": "372500ab",
        "parameters": []
      },
      "token_transfers_overflow": null,
      "raw_input": "0x372500ab",
      "value": "0",
      "max_priority_fee_per_gas": null,
      "revert_reason": null,
      "confirmation_duration": [
        0,
        1000
      ],
      "tx_tag": null
    },
    {
      "timestamp": "2024-05-28T16:09:57.000000Z",
      "fee": {
        "type": "actual",
        "value": "63591000"
      },
      "gas_limit": "89975",
      "block": 19713988,
      "status": "ok",
      "method": "claimRewards",
      "confirmations": 446970,
      "type": 0,
      "exchange_rate": "0.094151",
      "to": {
        "ens_domain_name": null,
        "hash": "0xe042DC9d91B5ce6E63579ae1287E993cDf41F8cE",
        "implementation_name": null,
        "is_contract": true,
        "is_verified": true,
        "metadata": null,
        "name": "ApeStaking",
        "private_tags": [],
        "public_tags": [],
        "watchlist_names": []
      },
      "tx_burnt_fee": null,
      "max_fee_per_gas": null,
      "result": "success",
      "hash": "0x4fb202bb031fd8fa37c42d1b2bf5855a4db5d8afcc2b82a21cf8002bb25ac8fd",
      "gas_price": "1000",
      "priority_fee": null,
      "base_fee_per_gas": null,
      "from": {
        "ens_domain_name": null,
        "hash": "0x5dB27876771f088343B09E5b243200afce5eBB0C",
        "implementation_name": null,
        "is_contract": false,
        "is_verified": false,
        "metadata": null,
        "name": null,
        "private_tags": [],
        "public_tags": [],
        "watchlist_names": []
      },
      "token_transfers": null,
      "tx_types": [
        "contract_call"
      ],
      "gas_used": "63591",
      "created_contract": null,
      "position": 0,
      "nonce": 66,
      "has_error_in_internal_txs": null,
      "actions": [],
      "decoded_input": {
        "method_call": "claimRewards()",
        "method_id": "372500ab",
        "parameters": []
      },
      "token_transfers_overflow": null,
      "raw_input": "0x372500ab",
      "value": "0",
      "max_priority_fee_per_gas": null,
      "revert_reason": null,
      "confirmation_duration": [
        0,
        1000
      ],
      "tx_tag": null
    },
    {
      "timestamp": "2024-05-28T13:37:49.000000Z",
      "fee": {
        "type": "actual",
        "value": "95386500000000"
      },
      "gas_limit": "112468",
      "block": 19704860,
      "status": "ok",
      "method": "claimRewards",
      "confirmations": 456098,
      "type": 0,
      "exchange_rate": "0.094151",
      "to": {
        "ens_domain_name": null,
        "hash": "0xe042DC9d91B5ce6E63579ae1287E993cDf41F8cE",
        "implementation_name": null,
        "is_contract": true,
        "is_verified": true,
        "metadata": null,
        "name": "ApeStaking",
        "private_tags": [],
        "public_tags": [],
        "watchlist_names": []
      },
      "tx_burnt_fee": null,
      "max_fee_per_gas": null,
      "result": "success",
      "hash": "0x110ffd17d8bb5955775c17dd531d0417837408c7862d40ded1487056f61eabf6",
      "gas_price": "1500000000",
      "priority_fee": null,
      "base_fee_per_gas": null,
      "from": {
        "ens_domain_name": null,
        "hash": "0x6a8c9CeCD93E84E6764c49c7a5355Fae9ab514f2",
        "implementation_name": null,
        "is_contract": false,
        "is_verified": false,
        "metadata": null,
        "name": null,
        "private_tags": [],
        "public_tags": [],
        "watchlist_names": []
      },
      "token_transfers": null,
      "tx_types": [
        "contract_call"
      ],
      "gas_used": "63591",
      "created_contract": null,
      "position": 0,
      "nonce": 2876,
      "has_error_in_internal_txs": null,
      "actions": [],
      "decoded_input": {
        "method_call": "claimRewards()",
        "method_id": "372500ab",
        "parameters": []
      },
      "token_transfers_overflow": null,
      "raw_input": "0x372500ab",
      "value": "0",
      "max_priority_fee_per_gas": null,
      "revert_reason": null,
      "confirmation_duration": [
        0,
        1000
      ],
      "tx_tag": null
    },
    {
      "timestamp": "2024-05-28T12:23:58.000000Z",
      "fee": {
        "type": "actual",
        "value": "63591000"
      },
      "gas_limit": "89975",
      "block": 19700429,
      "status": "ok",
      "method": "claimRewards",
      "confirmations": 460529,
      "type": 0,
      "exchange_rate": "0.094151",
      "to": {
        "ens_domain_name": null,
        "hash": "0xe042DC9d91B5ce6E63579ae1287E993cDf41F8cE",
        "implementation_name": null,
        "is_contract": true,
        "is_verified": true,
        "metadata": null,
        "name": "ApeStaking",
        "private_tags": [],
        "public_tags": [],
        "watchlist_names": []
      },
      "tx_burnt_fee": null,
      "max_fee_per_gas": null,
      "result": "success",
      "hash": "0x8d656a33920ebcdbf22e961d8c129b87ee3735b6ad0ce4aadfab0b21650e3b39",
      "gas_price": "1000",
      "priority_fee": null,
      "base_fee_per_gas": null,
      "from": {
        "ens_domain_name": null,
        "hash": "0x285802FB63550a2Dd567272664ad3342b07A1c0b",
        "implementation_name": null,
        "is_contract": false,
        "is_verified": false,
        "metadata": null,
        "name": null,
        "private_tags": [],
        "public_tags": [],
        "watchlist_names": []
      },
      "token_transfers": null,
      "tx_types": [
        "contract_call"
      ],
      "gas_used": "63591",
      "created_contract": null,
      "position": 0,
      "nonce": 25,
      "has_error_in_internal_txs": null,
      "actions": [],
      "decoded_input": {
        "method_call": "claimRewards()",
        "method_id": "372500ab",
        "parameters": []
      },
      "token_transfers_overflow": null,
      "raw_input": "0x372500ab",
      "value": "0",
      "max_priority_fee_per_gas": null,
      "revert_reason": null,
      "confirmation_duration": [
        0,
        1000
      ],
      "tx_tag": null
    },
    {
      "timestamp": "2024-05-27T17:52:30.000000Z",
      "fee": {
        "type": "actual",
        "value": "317955000000000"
      },
      "gas_limit": "112468",
      "block": 19633741,
      "status": "ok",
      "method": "claimRewards",
      "confirmations": 527217,
      "type": 0,
      "exchange_rate": "0.094151",
      "to": {
        "ens_domain_name": null,
        "hash": "0xe042DC9d91B5ce6E63579ae1287E993cDf41F8cE",
        "implementation_name": null,
        "is_contract": true,
        "is_verified": true,
        "metadata": null,
        "name": "ApeStaking",
        "private_tags": [],
        "public_tags": [],
        "watchlist_names": []
      },
      "tx_burnt_fee": null,
      "max_fee_per_gas": null,
      "result": "success",
      "hash": "0x28c5cc45db0611db505cce2716238660e4146078aa06f5897b91cc1bf209c583",
      "gas_price": "5000000000",
      "priority_fee": null,
      "base_fee_per_gas": null,
      "from": {
        "ens_domain_name": null,
        "hash": "0x6a8c9CeCD93E84E6764c49c7a5355Fae9ab514f2",
        "implementation_name": null,
        "is_contract": false,
        "is_verified": false,
        "metadata": null,
        "name": null,
        "private_tags": [],
        "public_tags": [],
        "watchlist_names": []
      },
      "token_transfers": null,
      "tx_types": [
        "contract_call"
      ],
      "gas_used": "63591",
      "created_contract": null,
      "position": 0,
      "nonce": 2872,
      "has_error_in_internal_txs": null,
      "actions": [],
      "decoded_input": {
        "method_call": "claimRewards()",
        "method_id": "372500ab",
        "parameters": []
      },
      "token_transfers_overflow": null,
      "raw_input": "0x372500ab",
      "value": "0",
      "max_priority_fee_per_gas": null,
      "revert_reason": null,
      "confirmation_duration": [
        0,
        1000
      ],
      "tx_tag": null
    },
    {
      "timestamp": "2024-05-26T18:24:47.000000Z",
      "fee": {
        "type": "actual",
        "value": "63591000"
      },
      "gas_limit": "89975",
      "block": 19549278,
      "status": "ok",
      "method": "claimRewards",
      "confirmations": 611680,
      "type": 0,
      "exchange_rate": "0.094151",
      "to": {
        "ens_domain_name": null,
        "hash": "0xe042DC9d91B5ce6E63579ae1287E993cDf41F8cE",
        "implementation_name": null,
        "is_contract": true,
        "is_verified": true,
        "metadata": null,
        "name": "ApeStaking",
        "private_tags": [],
        "public_tags": [],
        "watchlist_names": []
      },
      "tx_burnt_fee": null,
      "max_fee_per_gas": null,
      "result": "success",
      "hash": "0x6a7faa1ad4244bcc80e652f32c1674f169aaad4c8afe949bd6875e22f61063bb",
      "gas_price": "1000",
      "priority_fee": null,
      "base_fee_per_gas": null,
      "from": {
        "ens_domain_name": null,
        "hash": "0x843243fEc3dC46d9EF242a138Bcb5E3dcE5FFd10",
        "implementation_name": null,
        "is_contract": false,
        "is_verified": false,
        "metadata": null,
        "name": null,
        "private_tags": [],
        "public_tags": [],
        "watchlist_names": []
      },
      "token_transfers": null,
      "tx_types": [
        "contract_call"
      ],
      "gas_used": "63591",
      "created_contract": null,
      "position": 0,
      "nonce": 22,
      "has_error_in_internal_txs": null,
      "actions": [],
      "decoded_input": {
        "method_call": "claimRewards()",
        "method_id": "372500ab",
        "parameters": []
      },
      "token_transfers_overflow": null,
      "raw_input": "0x372500ab",
      "value": "0",
      "max_priority_fee_per_gas": null,
      "revert_reason": null,
      "confirmation_duration": [
        0,
        1000
      ],
      "tx_tag": null
    },
    {
      "timestamp": "2024-05-26T18:23:14.000000Z",
      "fee": {
        "type": "actual",
        "value": "63591000"
      },
      "gas_limit": "89975",
      "block": 19549185,
      "status": "ok",
      "method": "claimRewards",
      "confirmations": 611773,
      "type": 0,
      "exchange_rate": "0.094151",
      "to": {
        "ens_domain_name": null,
        "hash": "0xe042DC9d91B5ce6E63579ae1287E993cDf41F8cE",
        "implementation_name": null,
        "is_contract": true,
        "is_verified": true,
        "metadata": null,
        "name": "ApeStaking",
        "private_tags": [],
        "public_tags": [],
        "watchlist_names": []
      },
      "tx_burnt_fee": null,
      "max_fee_per_gas": null,
      "result": "success",
      "hash": "0x4b98441caabf13265110180eff1d66c58448805193bd1738b708914c9b3eded7",
      "gas_price": "1000",
      "priority_fee": null,
      "base_fee_per_gas": null,
      "from": {
        "ens_domain_name": null,
        "hash": "0xabE603A6b162f468E49bd42D0A1261e1c7ddec00",
        "implementation_name": null,
        "is_contract": false,
        "is_verified": false,
        "metadata": null,
        "name": null,
        "private_tags": [],
        "public_tags": [],
        "watchlist_names": []
      },
      "token_transfers": null,
      "tx_types": [
        "contract_call"
      ],
      "gas_used": "63591",
      "created_contract": null,
      "position": 0,
      "nonce": 35,
      "has_error_in_internal_txs": null,
      "actions": [],
      "decoded_input": {
        "method_call": "claimRewards()",
        "method_id": "372500ab",
        "parameters": []
      },
      "token_transfers_overflow": null,
      "raw_input": "0x372500ab",
      "value": "0",
      "max_priority_fee_per_gas": null,
      "revert_reason": null,
      "confirmation_duration": [
        0,
        1000
      ],
      "tx_tag": null
    },
    {
      "timestamp": "2024-05-26T18:07:38.000000Z",
      "fee": {
        "type": "actual",
        "value": "63591000"
      },
      "gas_limit": "112468",
      "block": 19548249,
      "status": "ok",
      "method": "claimRewards",
      "confirmations": 612709,
      "type": 0,
      "exchange_rate": "0.094151",
      "to": {
        "ens_domain_name": null,
        "hash": "0xe042DC9d91B5ce6E63579ae1287E993cDf41F8cE",
        "implementation_name": null,
        "is_contract": true,
        "is_verified": true,
        "metadata": null,
        "name": "ApeStaking",
        "private_tags": [],
        "public_tags": [],
        "watchlist_names": []
      },
      "tx_burnt_fee": null,
      "max_fee_per_gas": null,
      "result": "success",
      "hash": "0xb0b326f27341318216972b820b5c8e2223ae4527f73b90d245075f6a028433a9",
      "gas_price": "1000",
      "priority_fee": null,
      "base_fee_per_gas": null,
      "from": {
        "ens_domain_name": null,
        "hash": "0x6a8c9CeCD93E84E6764c49c7a5355Fae9ab514f2",
        "implementation_name": null,
        "is_contract": false,
        "is_verified": false,
        "metadata": null,
        "name": null,
        "private_tags": [],
        "public_tags": [],
        "watchlist_names": []
      },
      "token_transfers": null,
      "tx_types": [
        "contract_call"
      ],
      "gas_used": "63591",
      "created_contract": null,
      "position": 0,
      "nonce": 2866,
      "has_error_in_internal_txs": null,
      "actions": [],
      "decoded_input": {
        "method_call": "claimRewards()",
        "method_id": "372500ab",
        "parameters": []
      },
      "token_transfers_overflow": null,
      "raw_input": "0x372500ab",
      "value": "0",
      "max_priority_fee_per_gas": null,
      "revert_reason": null,
      "confirmation_duration": [
        0,
        1000
      ],
      "tx_tag": null
    },
    {
      "timestamp": "2024-05-25T19:35:50.000000Z",
      "fee": {
        "type": "actual",
        "value": "63591000"
      },
      "gas_limit": "112468",
      "block": 19467141,
      "status": "ok",
      "method": "claimRewards",
      "confirmations": 693817,
      "type": 0,
      "exchange_rate": "0.094151",
      "to": {
        "ens_domain_name": null,
        "hash": "0xe042DC9d91B5ce6E63579ae1287E993cDf41F8cE",
        "implementation_name": null,
        "is_contract": true,
        "is_verified": true,
        "metadata": null,
        "name": "ApeStaking",
        "private_tags": [],
        "public_tags": [],
        "watchlist_names": []
      },
      "tx_burnt_fee": null,
      "max_fee_per_gas": null,
      "result": "success",
      "hash": "0x739cd0ecce5a772d8f15376a3ff02c4fe5e88b4c4271afdc0dbb730575638184",
      "gas_price": "1000",
      "priority_fee": null,
      "base_fee_per_gas": null,
      "from": {
        "ens_domain_name": null,
        "hash": "0x6a8c9CeCD93E84E6764c49c7a5355Fae9ab514f2",
        "implementation_name": null,
        "is_contract": false,
        "is_verified": false,
        "metadata": null,
        "name": null,
        "private_tags": [],
        "public_tags": [],
        "watchlist_names": []
      },
      "token_transfers": null,
      "tx_types": [
        "contract_call"
      ],
      "gas_used": "63591",
      "created_contract": null,
      "position": 0,
      "nonce": 2862,
      "has_error_in_internal_txs": null,
      "actions": [],
      "decoded_input": {
        "method_call": "claimRewards()",
        "method_id": "372500ab",
        "parameters": []
      },
      "token_transfers_overflow": null,
      "raw_input": "0x372500ab",
      "value": "0",
      "max_priority_fee_per_gas": null,
      "revert_reason": null,
      "confirmation_duration": [
        0,
        1000
      ],
      "tx_tag": null
    },
    {
      "timestamp": "2024-05-25T05:06:49.000000Z",
      "fee": {
        "type": "actual",
        "value": "63591000"
      },
      "gas_limit": "89975",
      "block": 19415000,
      "status": "ok",
      "method": "claimRewards",
      "confirmations": 745958,
      "type": 0,
      "exchange_rate": "0.094151",
      "to": {
        "ens_domain_name": null,
        "hash": "0xe042DC9d91B5ce6E63579ae1287E993cDf41F8cE",
        "implementation_name": null,
        "is_contract": true,
        "is_verified": true,
        "metadata": null,
        "name": "ApeStaking",
        "private_tags": [],
        "public_tags": [],
        "watchlist_names": []
      },
      "tx_burnt_fee": null,
      "max_fee_per_gas": null,
      "result": "success",
      "hash": "0xed15f298f4c0783baaaacd8c00751552bbe638aed6e8347b46c7a7c810740a02",
      "gas_price": "1000",
      "priority_fee": null,
      "base_fee_per_gas": null,
      "from": {
        "ens_domain_name": null,
        "hash": "0x843243fEc3dC46d9EF242a138Bcb5E3dcE5FFd10",
        "implementation_name": null,
        "is_contract": false,
        "is_verified": false,
        "metadata": null,
        "name": null,
        "private_tags": [],
        "public_tags": [],
        "watchlist_names": []
      },
      "token_transfers": null,
      "tx_types": [
        "contract_call"
      ],
      "gas_used": "63591",
      "created_contract": null,
      "position": 0,
      "nonce": 20,
      "has_error_in_internal_txs": null,
      "actions": [],
      "decoded_input": {
        "method_call": "claimRewards()",
        "method_id": "372500ab",
        "parameters": []
      },
      "token_transfers_overflow": null,
      "raw_input": "0x372500ab",
      "value": "0",
      "max_priority_fee_per_gas": null,
      "revert_reason": null,
      "confirmation_duration": [
        0,
        1000
      ],
      "tx_tag": null
    },
    {
      "timestamp": "2024-05-25T05:05:43.000000Z",
      "fee": {
        "type": "actual",
        "value": "63591000"
      },
      "gas_limit": "89975",
      "block": 19414934,
      "status": "ok",
      "method": "claimRewards",
      "confirmations": 746024,
      "type": 0,
      "exchange_rate": "0.094151",
      "to": {
        "ens_domain_name": null,
        "hash": "0xe042DC9d91B5ce6E63579ae1287E993cDf41F8cE",
        "implementation_name": null,
        "is_contract": true,
        "is_verified": true,
        "metadata": null,
        "name": "ApeStaking",
        "private_tags": [],
        "public_tags": [],
        "watchlist_names": []
      },
      "tx_burnt_fee": null,
      "max_fee_per_gas": null,
      "result": "success",
      "hash": "0x7064f1c058b043cf4f782a8a3ed2b53c0067bdd208c2640227f078981733867b",
      "gas_price": "1000",
      "priority_fee": null,
      "base_fee_per_gas": null,
      "from": {
        "ens_domain_name": null,
        "hash": "0xabE603A6b162f468E49bd42D0A1261e1c7ddec00",
        "implementation_name": null,
        "is_contract": false,
        "is_verified": false,
        "metadata": null,
        "name": null,
        "private_tags": [],
        "public_tags": [],
        "watchlist_names": []
      },
      "token_transfers": null,
      "tx_types": [
        "contract_call"
      ],
      "gas_used": "63591",
      "created_contract": null,
      "position": 0,
      "nonce": 31,
      "has_error_in_internal_txs": null,
      "actions": [],
      "decoded_input": {
        "method_call": "claimRewards()",
        "method_id": "372500ab",
        "parameters": []
      },
      "token_transfers_overflow": null,
      "raw_input": "0x372500ab",
      "value": "0",
      "max_priority_fee_per_gas": null,
      "revert_reason": null,
      "confirmation_duration": [
        0,
        1000
      ],
      "tx_tag": null
    },
    {
      "timestamp": "2024-05-24T15:02:12.000000Z",
      "fee": {
        "type": "actual",
        "value": "95386500000000"
      },
      "gas_limit": "89975",
      "block": 19364336,
      "status": "ok",
      "method": "claimRewards",
      "confirmations": 796622,
      "type": 0,
      "exchange_rate": "0.094151",
      "to": {
        "ens_domain_name": null,
        "hash": "0xe042DC9d91B5ce6E63579ae1287E993cDf41F8cE",
        "implementation_name": null,
        "is_contract": true,
        "is_verified": true,
        "metadata": null,
        "name": "ApeStaking",
        "private_tags": [],
        "public_tags": [],
        "watchlist_names": []
      },
      "tx_burnt_fee": null,
      "max_fee_per_gas": null,
      "result": "success",
      "hash": "0x1b99ed2597e0d3c49dc6fb7e215373d4c9398f75125203478dbf608eabf9d141",
      "gas_price": "1500000000",
      "priority_fee": null,
      "base_fee_per_gas": null,
      "from": {
        "ens_domain_name": null,
        "hash": "0x843243fEc3dC46d9EF242a138Bcb5E3dcE5FFd10",
        "implementation_name": null,
        "is_contract": false,
        "is_verified": false,
        "metadata": null,
        "name": null,
        "private_tags": [],
        "public_tags": [],
        "watchlist_names": []
      },
      "token_transfers": null,
      "tx_types": [
        "contract_call"
      ],
      "gas_used": "63591",
      "created_contract": null,
      "position": 0,
      "nonce": 17,
      "has_error_in_internal_txs": null,
      "actions": [],
      "decoded_input": {
        "method_call": "claimRewards()",
        "method_id": "372500ab",
        "parameters": []
      },
      "token_transfers_overflow": null,
      "raw_input": "0x372500ab",
      "value": "0",
      "max_priority_fee_per_gas": null,
      "revert_reason": null,
      "confirmation_duration": [
        0,
        1000
      ],
      "tx_tag": null
    },
    {
      "timestamp": "2024-05-24T15:00:15.000000Z",
      "fee": {
        "type": "actual",
        "value": "95386500000000"
      },
      "gas_limit": "89975",
      "block": 19364219,
      "status": "ok",
      "method": "claimRewards",
      "confirmations": 796739,
      "type": 0,
      "exchange_rate": "0.094151",
      "to": {
        "ens_domain_name": null,
        "hash": "0xe042DC9d91B5ce6E63579ae1287E993cDf41F8cE",
        "implementation_name": null,
        "is_contract": true,
        "is_verified": true,
        "metadata": null,
        "name": "ApeStaking",
        "private_tags": [],
        "public_tags": [],
        "watchlist_names": []
      },
      "tx_burnt_fee": null,
      "max_fee_per_gas": null,
      "result": "success",
      "hash": "0x52d11488179d0a8b5f536d759f7a0a7c86f5f41a6f6d4da1e4ad7374c0b8a302",
      "gas_price": "1500000000",
      "priority_fee": null,
      "base_fee_per_gas": null,
      "from": {
        "ens_domain_name": null,
        "hash": "0xabE603A6b162f468E49bd42D0A1261e1c7ddec00",
        "implementation_name": null,
        "is_contract": false,
        "is_verified": false,
        "metadata": null,
        "name": null,
        "private_tags": [],
        "public_tags": [],
        "watchlist_names": []
      },
      "token_transfers": null,
      "tx_types": [
        "contract_call"
      ],
      "gas_used": "63591",
      "created_contract": null,
      "position": 0,
      "nonce": 28,
      "has_error_in_internal_txs": null,
      "actions": [],
      "decoded_input": {
        "method_call": "claimRewards()",
        "method_id": "372500ab",
        "parameters": []
      },
      "token_transfers_overflow": null,
      "raw_input": "0x372500ab",
      "value": "0",
      "max_priority_fee_per_gas": null,
      "revert_reason": null,
      "confirmation_duration": [
        0,
        1000
      ],
      "tx_tag": null
    },
    {
      "timestamp": "2024-05-24T09:58:14.000000Z",
      "fee": {
        "type": "actual",
        "value": "63591000"
      },
      "gas_limit": "112468",
      "block": 19346098,
      "status": "ok",
      "method": "claimRewards",
      "confirmations": 814860,
      "type": 0,
      "exchange_rate": "0.094151",
      "to": {
        "ens_domain_name": null,
        "hash": "0xe042DC9d91B5ce6E63579ae1287E993cDf41F8cE",
        "implementation_name": null,
        "is_contract": true,
        "is_verified": true,
        "metadata": null,
        "name": "ApeStaking",
        "private_tags": [],
        "public_tags": [],
        "watchlist_names": []
      },
      "tx_burnt_fee": null,
      "max_fee_per_gas": null,
      "result": "success",
      "hash": "0xe2a03c99f77947018790a7edc46420d042b73d1a646edc72b952c6d55c714266",
      "gas_price": "1000",
      "priority_fee": null,
      "base_fee_per_gas": null,
      "from": {
        "ens_domain_name": null,
        "hash": "0x6a8c9CeCD93E84E6764c49c7a5355Fae9ab514f2",
        "implementation_name": null,
        "is_contract": false,
        "is_verified": false,
        "metadata": null,
        "name": null,
        "private_tags": [],
        "public_tags": [],
        "watchlist_names": []
      },
      "token_transfers": null,
      "tx_types": [
        "contract_call"
      ],
      "gas_used": "63591",
      "created_contract": null,
      "position": 0,
      "nonce": 2853,
      "has_error_in_internal_txs": null,
      "actions": [],
      "decoded_input": {
        "method_call": "claimRewards()",
        "method_id": "372500ab",
        "parameters": []
      },
      "token_transfers_overflow": null,
      "raw_input": "0x372500ab",
      "value": "0",
      "max_priority_fee_per_gas": null,
      "revert_reason": null,
      "confirmation_duration": [
        0,
        1000
      ],
      "tx_tag": null
    },
    {
      "timestamp": "2024-05-23T14:38:47.000000Z",
      "fee": {
        "type": "actual",
        "value": "95386500000000"
      },
      "gas_limit": "112468",
      "block": 19276531,
      "status": "ok",
      "method": "claimRewards",
      "confirmations": 884427,
      "type": 0,
      "exchange_rate": "0.094151",
      "to": {
        "ens_domain_name": null,
        "hash": "0xe042DC9d91B5ce6E63579ae1287E993cDf41F8cE",
        "implementation_name": null,
        "is_contract": true,
        "is_verified": true,
        "metadata": null,
        "name": "ApeStaking",
        "private_tags": [],
        "public_tags": [],
        "watchlist_names": []
      },
      "tx_burnt_fee": null,
      "max_fee_per_gas": null,
      "result": "success",
      "hash": "0xe84a1a110ea508405f03e613bdd0965a0e6051d5e1b845245a6a9fffffd84160",
      "gas_price": "1500000000",
      "priority_fee": null,
      "base_fee_per_gas": null,
      "from": {
        "ens_domain_name": null,
        "hash": "0x6a8c9CeCD93E84E6764c49c7a5355Fae9ab514f2",
        "implementation_name": null,
        "is_contract": false,
        "is_verified": false,
        "metadata": null,
        "name": null,
        "private_tags": [],
        "public_tags": [],
        "watchlist_names": []
      },
      "token_transfers": null,
      "tx_types": [
        "contract_call"
      ],
      "gas_used": "63591",
      "created_contract": null,
      "position": 0,
      "nonce": 2851,
      "has_error_in_internal_txs": null,
      "actions": [],
      "decoded_input": {
        "method_call": "claimRewards()",
        "method_id": "372500ab",
        "parameters": []
      },
      "token_transfers_overflow": null,
      "raw_input": "0x372500ab",
      "value": "0",
      "max_priority_fee_per_gas": null,
      "revert_reason": null,
      "confirmation_duration": [
        0,
        1000
      ],
      "tx_tag": null
    },
    {
      "timestamp": "2024-05-22T22:18:58.000000Z",
      "fee": {
        "type": "actual",
        "value": "176998500000000"
      },
      "gas_limit": "140256",
      "block": 19217742,
      "status": "ok",
      "method": "stake",
      "confirmations": 943216,
      "type": 0,
      "exchange_rate": "0.094151",
      "to": {
        "ens_domain_name": null,
        "hash": "0xe042DC9d91B5ce6E63579ae1287E993cDf41F8cE",
        "implementation_name": null,
        "is_contract": true,
        "is_verified": true,
        "metadata": null,
        "name": "ApeStaking",
        "private_tags": [],
        "public_tags": [],
        "watchlist_names": []
      },
      "tx_burnt_fee": null,
      "max_fee_per_gas": null,
      "result": "success",
      "hash": "0x812a70805945918002f10bd782a39cd6056817b6eca64513e7df7c43b111348b",
      "gas_price": "1500000000",
      "priority_fee": null,
      "base_fee_per_gas": null,
      "from": {
        "ens_domain_name": null,
        "hash": "0x2f06aC8156fE5E3B8c9DEA15c1b6C40cA7d7de74",
        "implementation_name": null,
        "is_contract": false,
        "is_verified": false,
        "metadata": null,
        "name": null,
        "private_tags": [],
        "public_tags": [],
        "watchlist_names": []
      },
      "token_transfers": null,
      "tx_types": [
        "contract_call",
        "token_transfer"
      ],
      "gas_used": "117999",
      "created_contract": null,
      "position": 0,
      "nonce": 54,
      "has_error_in_internal_txs": null,
      "actions": [],
      "decoded_input": {
        "method_call": "stake(uint256 amount)",
        "method_id": "a694fc3a",
        "parameters": [
          {
            "name": "amount",
            "type": "uint256",
            "value": "502181000000000"
          }
        ]
      },
      "token_transfers_overflow": null,
      "raw_input": "0xa694fc3a0000000000000000000000000000000000000000000000000001c8bb201e3200",
      "value": "0",
      "max_priority_fee_per_gas": null,
      "revert_reason": null,
      "confirmation_duration": [
        0,
        1000
      ],
      "tx_tag": null
    },
    {
      "timestamp": "2024-05-22T22:18:37.000000Z",
      "fee": {
        "type": "actual",
        "value": "190329000000000"
      },
      "gas_limit": "169493",
      "block": 19217721,
      "status": "ok",
      "method": "unstake",
      "confirmations": 943237,
      "type": 0,
      "exchange_rate": "0.094151",
      "to": {
        "ens_domain_name": null,
        "hash": "0xe042DC9d91B5ce6E63579ae1287E993cDf41F8cE",
        "implementation_name": null,
        "is_contract": true,
        "is_verified": true,
        "metadata": null,
        "name": "ApeStaking",
        "private_tags": [],
        "public_tags": [],
        "watchlist_names": []
      },
      "tx_burnt_fee": null,
      "max_fee_per_gas": null,
      "result": "success",
      "hash": "0xc4e55b28f3b0b4faff72a0e77d710dad0a2803675ad17524711eb4737da40b2f",
      "gas_price": "1500000000",
      "priority_fee": null,
      "base_fee_per_gas": null,
      "from": {
        "ens_domain_name": null,
        "hash": "0x2f06aC8156fE5E3B8c9DEA15c1b6C40cA7d7de74",
        "implementation_name": null,
        "is_contract": false,
        "is_verified": false,
        "metadata": null,
        "name": null,
        "private_tags": [],
        "public_tags": [],
        "watchlist_names": []
      },
      "token_transfers": null,
      "tx_types": [
        "contract_call",
        "token_transfer"
      ],
      "gas_used": "126886",
      "created_contract": null,
      "position": 0,
      "nonce": 52,
      "has_error_in_internal_txs": null,
      "actions": [],
      "decoded_input": {
        "method_call": "unstake(uint256 amount)",
        "method_id": "2e17de78",
        "parameters": [
          {
            "name": "amount",
            "type": "uint256",
            "value": "502181000000000"
          }
        ]
      },
      "token_transfers_overflow": null,
      "raw_input": "0x2e17de780000000000000000000000000000000000000000000000000001c8bb201e3200",
      "value": "0",
      "max_priority_fee_per_gas": null,
      "revert_reason": null,
      "confirmation_duration": [
        0,
        1000
      ],
      "tx_tag": null
    },
    {
      "timestamp": "2024-05-22T20:00:31.000000Z",
      "fee": {
        "type": "actual",
        "value": "43954500000000"
      },
      "gas_limit": "17860000",
      "block": 19209435,
      "status": "error",
      "method": "unstake",
      "confirmations": 951523,
      "type": 0,
      "exchange_rate": "0.094151",
      "to": {
        "ens_domain_name": null,
        "hash": "0xe042DC9d91B5ce6E63579ae1287E993cDf41F8cE",
        "implementation_name": null,
        "is_contract": true,
        "is_verified": true,
        "metadata": null,
        "name": "ApeStaking",
        "private_tags": [],
        "public_tags": [],
        "watchlist_names": []
      },
      "tx_burnt_fee": null,
      "max_fee_per_gas": null,
      "result": "awaiting_internal_transactions",
      "hash": "0xbb65c187d50d878c5a15a13b0595ea5b8ef88c3cc275f517fa363cf00c49c364",
      "gas_price": "1500000000",
      "priority_fee": null,
      "base_fee_per_gas": null,
      "from": {
        "ens_domain_name": null,
        "hash": "0x3711c9Ab9e434F77f862AF788A527701388FbA9d",
        "implementation_name": null,
        "is_contract": false,
        "is_verified": false,
        "metadata": null,
        "name": null,
        "private_tags": [],
        "public_tags": [],
        "watchlist_names": []
      },
      "token_transfers": null,
      "tx_types": [
        "contract_call"
      ],
      "gas_used": "29303",
      "created_contract": null,
      "position": 0,
      "nonce": 8,
      "has_error_in_internal_txs": null,
      "actions": [],
      "decoded_input": {
        "method_call": "unstake(uint256 amount)",
        "method_id": "2e17de78",
        "parameters": [
          {
            "name": "amount",
            "type": "uint256",
            "value": "117507716758000000000"
          }
        ]
      },
      "token_transfers_overflow": null,
      "raw_input": "0x2e17de780000000000000000000000000000000000000000000000065ebf45cf0fce5c00",
      "value": "0",
      "max_priority_fee_per_gas": null,
      "revert_reason": null,
      "confirmation_duration": [
        0,
        1000
      ],
      "tx_tag": null
    },
    {
      "timestamp": "2024-05-22T18:31:14.000000Z",
      "fee": {
        "type": "actual",
        "value": "63591000"
      },
      "gas_limit": "89975",
      "block": 19204078,
      "status": "ok",
      "method": "claimRewards",
      "confirmations": 956880,
      "type": 0,
      "exchange_rate": "0.094151",
      "to": {
        "ens_domain_name": null,
        "hash": "0xe042DC9d91B5ce6E63579ae1287E993cDf41F8cE",
        "implementation_name": null,
        "is_contract": true,
        "is_verified": true,
        "metadata": null,
        "name": "ApeStaking",
        "private_tags": [],
        "public_tags": [],
        "watchlist_names": []
      },
      "tx_burnt_fee": null,
      "max_fee_per_gas": null,
      "result": "success",
      "hash": "0x61ff61bafee1616e0bd9c70b1a341ebdad9e1c87f4f3f65de641fba0a16e8da2",
      "gas_price": "1000",
      "priority_fee": null,
      "base_fee_per_gas": null,
      "from": {
        "ens_domain_name": null,
        "hash": "0x843243fEc3dC46d9EF242a138Bcb5E3dcE5FFd10",
        "implementation_name": null,
        "is_contract": false,
        "is_verified": false,
        "metadata": null,
        "name": null,
        "private_tags": [],
        "public_tags": [],
        "watchlist_names": []
      },
      "token_transfers": null,
      "tx_types": [
        "contract_call"
      ],
      "gas_used": "63591",
      "created_contract": null,
      "position": 0,
      "nonce": 9,
      "has_error_in_internal_txs": null,
      "actions": [],
      "decoded_input": {
        "method_call": "claimRewards()",
        "method_id": "372500ab",
        "parameters": []
      },
      "token_transfers_overflow": null,
      "raw_input": "0x372500ab",
      "value": "0",
      "max_priority_fee_per_gas": null,
      "revert_reason": null,
      "confirmation_duration": [
        0,
        1000
      ],
      "tx_tag": null
    },
    {
      "timestamp": "2024-05-22T18:27:06.000000Z",
      "fee": {
        "type": "actual",
        "value": "63591000"
      },
      "gas_limit": "89975",
      "block": 19203830,
      "status": "ok",
      "method": "claimRewards",
      "confirmations": 957128,
      "type": 0,
      "exchange_rate": "0.094151",
      "to": {
        "ens_domain_name": null,
        "hash": "0xe042DC9d91B5ce6E63579ae1287E993cDf41F8cE",
        "implementation_name": null,
        "is_contract": true,
        "is_verified": true,
        "metadata": null,
        "name": "ApeStaking",
        "private_tags": [],
        "public_tags": [],
        "watchlist_names": []
      },
      "tx_burnt_fee": null,
      "max_fee_per_gas": null,
      "result": "success",
      "hash": "0x19124de5aea28c7f7074635198e856f9b629446e73bd67cb95db7e2a8fea5a34",
      "gas_price": "1000",
      "priority_fee": null,
      "base_fee_per_gas": null,
      "from": {
        "ens_domain_name": null,
        "hash": "0xabE603A6b162f468E49bd42D0A1261e1c7ddec00",
        "implementation_name": null,
        "is_contract": false,
        "is_verified": false,
        "metadata": null,
        "name": null,
        "private_tags": [],
        "public_tags": [],
        "watchlist_names": []
      },
      "token_transfers": null,
      "tx_types": [
        "contract_call"
      ],
      "gas_used": "63591",
      "created_contract": null,
      "position": 0,
      "nonce": 18,
      "has_error_in_internal_txs": null,
      "actions": [],
      "decoded_input": {
        "method_call": "claimRewards()",
        "method_id": "372500ab",
        "parameters": []
      },
      "token_transfers_overflow": null,
      "raw_input": "0x372500ab",
      "value": "0",
      "max_priority_fee_per_gas": null,
      "revert_reason": null,
      "confirmation_duration": [
        0,
        1000
      ],
      "tx_tag": null
    },
    {
      "timestamp": "2024-05-22T11:01:06.000000Z",
      "fee": {
        "type": "actual",
        "value": "117999000"
      },
      "gas_limit": "140256",
      "block": 19177072,
      "status": "ok",
      "method": "stake",
      "confirmations": 983886,
      "type": 0,
      "exchange_rate": "0.094151",
      "to": {
        "ens_domain_name": null,
        "hash": "0xe042DC9d91B5ce6E63579ae1287E993cDf41F8cE",
        "implementation_name": null,
        "is_contract": true,
        "is_verified": true,
        "metadata": null,
        "name": "ApeStaking",
        "private_tags": [],
        "public_tags": [],
        "watchlist_names": []
      },
      "tx_burnt_fee": null,
      "max_fee_per_gas": null,
      "result": "success",
      "hash": "0x6042f2a39e76d87c654dcf40700ee1d0269a05d3a54733d8193a036976c89efd",
      "gas_price": "1000",
      "priority_fee": null,
      "base_fee_per_gas": null,
      "from": {
        "ens_domain_name": null,
        "hash": "0x2f06aC8156fE5E3B8c9DEA15c1b6C40cA7d7de74",
        "implementation_name": null,
        "is_contract": false,
        "is_verified": false,
        "metadata": null,
        "name": null,
        "private_tags": [],
        "public_tags": [],
        "watchlist_names": []
      },
      "token_transfers": null,
      "tx_types": [
        "contract_call",
        "token_transfer"
      ],
      "gas_used": "117999",
      "created_contract": null,
      "position": 0,
      "nonce": 51,
      "has_error_in_internal_txs": null,
      "actions": [],
      "decoded_input": {
        "method_call": "stake(uint256 amount)",
        "method_id": "a694fc3a",
        "parameters": [
          {
            "name": "amount",
            "type": "uint256",
            "value": "502181000000000"
          }
        ]
      },
      "token_transfers_overflow": null,
      "raw_input": "0xa694fc3a0000000000000000000000000000000000000000000000000001c8bb201e3200",
      "value": "0",
      "max_priority_fee_per_gas": null,
      "revert_reason": null,
      "confirmation_duration": [
        0,
        1000
      ],
      "tx_tag": null
    },
    {
      "timestamp": "2024-05-22T10:47:36.000000Z",
      "fee": {
        "type": "actual",
        "value": "317955000000000"
      },
      "gas_limit": "112468",
      "block": 19176262,
      "status": "ok",
      "method": "claimRewards",
      "confirmations": 984696,
      "type": 0,
      "exchange_rate": "0.094151",
      "to": {
        "ens_domain_name": null,
        "hash": "0xe042DC9d91B5ce6E63579ae1287E993cDf41F8cE",
        "implementation_name": null,
        "is_contract": true,
        "is_verified": true,
        "metadata": null,
        "name": "ApeStaking",
        "private_tags": [],
        "public_tags": [],
        "watchlist_names": []
      },
      "tx_burnt_fee": null,
      "max_fee_per_gas": null,
      "result": "success",
      "hash": "0x2169f90cee4c2fa9deb150d8661430b4fd952d747188908ccebf5a65fae1c0a1",
      "gas_price": "5000000000",
      "priority_fee": null,
      "base_fee_per_gas": null,
      "from": {
        "ens_domain_name": null,
        "hash": "0x6a8c9CeCD93E84E6764c49c7a5355Fae9ab514f2",
        "implementation_name": null,
        "is_contract": false,
        "is_verified": false,
        "metadata": null,
        "name": null,
        "private_tags": [],
        "public_tags": [],
        "watchlist_names": []
      },
      "token_transfers": null,
      "tx_types": [
        "contract_call"
      ],
      "gas_used": "63591",
      "created_contract": null,
      "position": 0,
      "nonce": 2845,
      "has_error_in_internal_txs": null,
      "actions": [],
      "decoded_input": {
        "method_call": "claimRewards()",
        "method_id": "372500ab",
        "parameters": []
      },
      "token_transfers_overflow": null,
      "raw_input": "0x372500ab",
      "value": "0",
      "max_priority_fee_per_gas": null,
      "revert_reason": null,
      "confirmation_duration": [
        0,
        1000
      ],
      "tx_tag": null
    },
    {
      "timestamp": "2024-05-22T05:58:50.000000Z",
      "fee": {
        "type": "actual",
        "value": "176980500000000"
      },
      "gas_limit": "140244",
      "block": 19158936,
      "status": "ok",
      "method": "stake",
      "confirmations": 1002022,
      "type": 0,
      "exchange_rate": "0.094151",
      "to": {
        "ens_domain_name": null,
        "hash": "0xe042DC9d91B5ce6E63579ae1287E993cDf41F8cE",
        "implementation_name": null,
        "is_contract": true,
        "is_verified": true,
        "metadata": null,
        "name": "ApeStaking",
        "private_tags": [],
        "public_tags": [],
        "watchlist_names": []
      },
      "tx_burnt_fee": null,
      "max_fee_per_gas": null,
      "result": "success",
      "hash": "0x646be466a61791ac8d59a56ee35057763eadfa6ec87a8ed7504ff5d3d050cf9c",
      "gas_price": "1500000000",
      "priority_fee": null,
      "base_fee_per_gas": null,
      "from": {
        "ens_domain_name": null,
        "hash": "0xdB45623acC8067Ea1936F8D022C29AcC076CF642",
        "implementation_name": null,
        "is_contract": false,
        "is_verified": false,
        "metadata": null,
        "name": null,
        "private_tags": [],
        "public_tags": [],
        "watchlist_names": []
      },
      "token_transfers": null,
      "tx_types": [
        "contract_call",
        "token_transfer"
      ],
      "gas_used": "117987",
      "created_contract": null,
      "position": 0,
      "nonce": 70,
      "has_error_in_internal_txs": null,
      "actions": [],
      "decoded_input": {
        "method_call": "stake(uint256 amount)",
        "method_id": "a694fc3a",
        "parameters": [
          {
            "name": "amount",
            "type": "uint256",
            "value": "217744000000000"
          }
        ]
      },
      "token_transfers_overflow": null,
      "raw_input": "0xa694fc3a0000000000000000000000000000000000000000000000000000c60979c5a000",
      "value": "0",
      "max_priority_fee_per_gas": null,
      "revert_reason": null,
      "confirmation_duration": [
        0,
        1000
      ],
      "tx_tag": null
    },
    {
      "timestamp": "2024-05-21T08:37:23.000000Z",
      "fee": {
        "type": "actual",
        "value": "95386500000000"
      },
      "gas_limit": "112468",
      "block": 19082049,
      "status": "ok",
      "method": "claimRewards",
      "confirmations": 1078909,
      "type": 0,
      "exchange_rate": "0.094151",
      "to": {
        "ens_domain_name": null,
        "hash": "0xe042DC9d91B5ce6E63579ae1287E993cDf41F8cE",
        "implementation_name": null,
        "is_contract": true,
        "is_verified": true,
        "metadata": null,
        "name": "ApeStaking",
        "private_tags": [],
        "public_tags": [],
        "watchlist_names": []
      },
      "tx_burnt_fee": null,
      "max_fee_per_gas": null,
      "result": "success",
      "hash": "0xad2f71fe5fdb5db5eae55c830465f02ae21c68db0fd4f58074e1409c0a85926f",
      "gas_price": "1500000000",
      "priority_fee": null,
      "base_fee_per_gas": null,
      "from": {
        "ens_domain_name": null,
        "hash": "0x6a8c9CeCD93E84E6764c49c7a5355Fae9ab514f2",
        "implementation_name": null,
        "is_contract": false,
        "is_verified": false,
        "metadata": null,
        "name": null,
        "private_tags": [],
        "public_tags": [],
        "watchlist_names": []
      },
      "token_transfers": null,
      "tx_types": [
        "contract_call"
      ],
      "gas_used": "63591",
      "created_contract": null,
      "position": 0,
      "nonce": 2833,
      "has_error_in_internal_txs": null,
      "actions": [],
      "decoded_input": {
        "method_call": "claimRewards()",
        "method_id": "372500ab",
        "parameters": []
      },
      "token_transfers_overflow": null,
      "raw_input": "0x372500ab",
      "value": "0",
      "max_priority_fee_per_gas": null,
      "revert_reason": null,
      "confirmation_duration": [
        0,
        1000
      ],
      "tx_tag": null
    },
    {
      "timestamp": "2024-05-21T06:00:41.000000Z",
      "fee": {
        "type": "actual",
        "value": "95386500000000"
      },
      "gas_limit": "89975",
      "block": 19072647,
      "status": "ok",
      "method": "claimRewards",
      "confirmations": 1088311,
      "type": 0,
      "exchange_rate": "0.094151",
      "to": {
        "ens_domain_name": null,
        "hash": "0xe042DC9d91B5ce6E63579ae1287E993cDf41F8cE",
        "implementation_name": null,
        "is_contract": true,
        "is_verified": true,
        "metadata": null,
        "name": "ApeStaking",
        "private_tags": [],
        "public_tags": [],
        "watchlist_names": []
      },
      "tx_burnt_fee": null,
      "max_fee_per_gas": null,
      "result": "success",
      "hash": "0x3d9cbc1b49ee761d4308caf539e0f43661077be441577f6573d83217a47a8343",
      "gas_price": "1500000000",
      "priority_fee": null,
      "base_fee_per_gas": null,
      "from": {
        "ens_domain_name": null,
        "hash": "0x7C82D377601Cd4794eAa87841903bf1a566bb4Be",
        "implementation_name": null,
        "is_contract": false,
        "is_verified": false,
        "metadata": null,
        "name": null,
        "private_tags": [],
        "public_tags": [],
        "watchlist_names": []
      },
      "token_transfers": null,
      "tx_types": [
        "contract_call"
      ],
      "gas_used": "63591",
      "created_contract": null,
      "position": 0,
      "nonce": 155,
      "has_error_in_internal_txs": null,
      "actions": [],
      "decoded_input": {
        "method_call": "claimRewards()",
        "method_id": "372500ab",
        "parameters": []
      },
      "token_transfers_overflow": null,
      "raw_input": "0x372500ab",
      "value": "0",
      "max_priority_fee_per_gas": null,
      "revert_reason": null,
      "confirmation_duration": [
        0,
        1000
      ],
      "tx_tag": null
    },
    {
      "timestamp": "2024-05-21T06:00:27.000000Z",
      "fee": {
        "type": "actual",
        "value": "95386500000000"
      },
      "gas_limit": "89975",
      "block": 19072633,
      "status": "ok",
      "method": "claimRewards",
      "confirmations": 1088325,
      "type": 0,
      "exchange_rate": "0.094151",
      "to": {
        "ens_domain_name": null,
        "hash": "0xe042DC9d91B5ce6E63579ae1287E993cDf41F8cE",
        "implementation_name": null,
        "is_contract": true,
        "is_verified": true,
        "metadata": null,
        "name": "ApeStaking",
        "private_tags": [],
        "public_tags": [],
        "watchlist_names": []
      },
      "tx_burnt_fee": null,
      "max_fee_per_gas": null,
      "result": "success",
      "hash": "0x132e918b3f66adb56ed6b8696eb6ecf741331c0bedd4e3f2d28f23c1f3660504",
      "gas_price": "1500000000",
      "priority_fee": null,
      "base_fee_per_gas": null,
      "from": {
        "ens_domain_name": null,
        "hash": "0x538c7EBf2C407aC147507d2B4e3BDf5815E8074a",
        "implementation_name": null,
        "is_contract": false,
        "is_verified": false,
        "metadata": null,
        "name": null,
        "private_tags": [],
        "public_tags": [],
        "watchlist_names": []
      },
      "token_transfers": null,
      "tx_types": [
        "contract_call"
      ],
      "gas_used": "63591",
      "created_contract": null,
      "position": 1,
      "nonce": 328,
      "has_error_in_internal_txs": null,
      "actions": [],
      "decoded_input": {
        "method_call": "claimRewards()",
        "method_id": "372500ab",
        "parameters": []
      },
      "token_transfers_overflow": null,
      "raw_input": "0x372500ab",
      "value": "0",
      "max_priority_fee_per_gas": null,
      "revert_reason": null,
      "confirmation_duration": [
        0,
        1000
      ],
      "tx_tag": null
    },
    {
      "timestamp": "2024-05-21T06:00:12.000000Z",
      "fee": {
        "type": "actual",
        "value": "95386500000000"
      },
      "gas_limit": "89975",
      "block": 19072618,
      "status": "ok",
      "method": "claimRewards",
      "confirmations": 1088340,
      "type": 0,
      "exchange_rate": "0.094151",
      "to": {
        "ens_domain_name": null,
        "hash": "0xe042DC9d91B5ce6E63579ae1287E993cDf41F8cE",
        "implementation_name": null,
        "is_contract": true,
        "is_verified": true,
        "metadata": null,
        "name": "ApeStaking",
        "private_tags": [],
        "public_tags": [],
        "watchlist_names": []
      },
      "tx_burnt_fee": null,
      "max_fee_per_gas": null,
      "result": "success",
      "hash": "0x3cedd9cf58ee0dcad01a1e57045db76cf047ea1707b493a4c430a09a8c717d85",
      "gas_price": "1500000000",
      "priority_fee": null,
      "base_fee_per_gas": null,
      "from": {
        "ens_domain_name": null,
        "hash": "0x847dF4De210437a9835EBC8E038F40B73B05Da7b",
        "implementation_name": null,
        "is_contract": false,
        "is_verified": false,
        "metadata": null,
        "name": null,
        "private_tags": [],
        "public_tags": [],
        "watchlist_names": []
      },
      "token_transfers": null,
      "tx_types": [
        "contract_call"
      ],
      "gas_used": "63591",
      "created_contract": null,
      "position": 0,
      "nonce": 667,
      "has_error_in_internal_txs": null,
      "actions": [],
      "decoded_input": {
        "method_call": "claimRewards()",
        "method_id": "372500ab",
        "parameters": []
      },
      "token_transfers_overflow": null,
      "raw_input": "0x372500ab",
      "value": "0",
      "max_priority_fee_per_gas": null,
      "revert_reason": null,
      "confirmation_duration": [
        0,
        1000
      ],
      "tx_tag": null
    },
    {
      "timestamp": "2024-05-20T19:12:01.000000Z",
      "fee": {
        "type": "actual",
        "value": "121036500000000"
      },
      "gas_limit": "107342",
      "block": 19033730,
      "status": "ok",
      "method": "claimRewards",
      "confirmations": 1127228,
      "type": 0,
      "exchange_rate": "0.094151",
      "to": {
        "ens_domain_name": null,
        "hash": "0xe042DC9d91B5ce6E63579ae1287E993cDf41F8cE",
        "implementation_name": null,
        "is_contract": true,
        "is_verified": true,
        "metadata": null,
        "name": "ApeStaking",
        "private_tags": [],
        "public_tags": [],
        "watchlist_names": []
      },
      "tx_burnt_fee": null,
      "max_fee_per_gas": null,
      "result": "success",
      "hash": "0x28fe64641cc1e2ca9eb669a16f8ac10d4e47682b36266e0fd466c61e96fa64f3",
      "gas_price": "1500000000",
      "priority_fee": null,
      "base_fee_per_gas": null,
      "from": {
        "ens_domain_name": null,
        "hash": "0x843243fEc3dC46d9EF242a138Bcb5E3dcE5FFd10",
        "implementation_name": null,
        "is_contract": false,
        "is_verified": false,
        "metadata": null,
        "name": null,
        "private_tags": [],
        "public_tags": [],
        "watchlist_names": []
      },
      "token_transfers": null,
      "tx_types": [
        "contract_call"
      ],
      "gas_used": "80691",
      "created_contract": null,
      "position": 0,
      "nonce": 3,
      "has_error_in_internal_txs": null,
      "actions": [],
      "decoded_input": {
        "method_call": "claimRewards()",
        "method_id": "372500ab",
        "parameters": []
      },
      "token_transfers_overflow": null,
      "raw_input": "0x372500ab",
      "value": "0",
      "max_priority_fee_per_gas": null,
      "revert_reason": null,
      "confirmation_duration": [
        0,
        1000
      ],
      "tx_tag": null
    },
    {
      "timestamp": "2024-05-20T19:11:25.000000Z",
      "fee": {
        "type": "actual",
        "value": "121036500000000"
      },
      "gas_limit": "107342",
      "block": 19033694,
      "status": "ok",
      "method": "claimRewards",
      "confirmations": 1127264,
      "type": 0,
      "exchange_rate": "0.094151",
      "to": {
        "ens_domain_name": null,
        "hash": "0xe042DC9d91B5ce6E63579ae1287E993cDf41F8cE",
        "implementation_name": null,
        "is_contract": true,
        "is_verified": true,
        "metadata": null,
        "name": "ApeStaking",
        "private_tags": [],
        "public_tags": [],
        "watchlist_names": []
      },
      "tx_burnt_fee": null,
      "max_fee_per_gas": null,
      "result": "success",
      "hash": "0x0e09d7337ae6d3c76a52a4ba8969940e7e0e98207c200e6f2ce137a7a7a1c84a",
      "gas_price": "1500000000",
      "priority_fee": null,
      "base_fee_per_gas": null,
      "from": {
        "ens_domain_name": null,
        "hash": "0xabE603A6b162f468E49bd42D0A1261e1c7ddec00",
        "implementation_name": null,
        "is_contract": false,
        "is_verified": false,
        "metadata": null,
        "name": null,
        "private_tags": [],
        "public_tags": [],
        "watchlist_names": []
      },
      "token_transfers": null,
      "tx_types": [
        "contract_call"
      ],
      "gas_used": "80691",
      "created_contract": null,
      "position": 0,
      "nonce": 10,
      "has_error_in_internal_txs": null,
      "actions": [],
      "decoded_input": {
        "method_call": "claimRewards()",
        "method_id": "372500ab",
        "parameters": []
      },
      "token_transfers_overflow": null,
      "raw_input": "0x372500ab",
      "value": "0",
      "max_priority_fee_per_gas": null,
      "revert_reason": null,
      "confirmation_duration": [
        0,
        1000
      ],
      "tx_tag": null
    },
    {
      "timestamp": "2024-05-20T12:49:58.000000Z",
      "fee": {
        "type": "actual",
        "value": "95386500000000"
      },
      "gas_limit": "112468",
      "block": 19010807,
      "status": "ok",
      "method": "claimRewards",
      "confirmations": 1150151,
      "type": 0,
      "exchange_rate": "0.094151",
      "to": {
        "ens_domain_name": null,
        "hash": "0xe042DC9d91B5ce6E63579ae1287E993cDf41F8cE",
        "implementation_name": null,
        "is_contract": true,
        "is_verified": true,
        "metadata": null,
        "name": "ApeStaking",
        "private_tags": [],
        "public_tags": [],
        "watchlist_names": []
      },
      "tx_burnt_fee": null,
      "max_fee_per_gas": null,
      "result": "success",
      "hash": "0x1ed07125cff62f75b5a799fe81b1f041298feacc14fec0a22bc7ba283d4113e0",
      "gas_price": "1500000000",
      "priority_fee": null,
      "base_fee_per_gas": null,
      "from": {
        "ens_domain_name": null,
        "hash": "0x6a8c9CeCD93E84E6764c49c7a5355Fae9ab514f2",
        "implementation_name": null,
        "is_contract": false,
        "is_verified": false,
        "metadata": null,
        "name": null,
        "private_tags": [],
        "public_tags": [],
        "watchlist_names": []
      },
      "token_transfers": null,
      "tx_types": [
        "contract_call"
      ],
      "gas_used": "63591",
      "created_contract": null,
      "position": 0,
      "nonce": 2829,
      "has_error_in_internal_txs": null,
      "actions": [],
      "decoded_input": {
        "method_call": "claimRewards()",
        "method_id": "372500ab",
        "parameters": []
      },
      "token_transfers_overflow": null,
      "raw_input": "0x372500ab",
      "value": "0",
      "max_priority_fee_per_gas": null,
      "revert_reason": null,
      "confirmation_duration": [
        0,
        1000
      ],
      "tx_tag": null
    },
    {
      "timestamp": "2024-05-18T21:34:13.000000Z",
      "fee": {
        "type": "actual",
        "value": "106088000"
      },
      "gas_limit": "128159",
      "block": 18869462,
      "status": "ok",
      "method": "stake",
      "confirmations": 1291496,
      "type": 0,
      "exchange_rate": "0.094151",
      "to": {
        "ens_domain_name": null,
        "hash": "0xe042DC9d91B5ce6E63579ae1287E993cDf41F8cE",
        "implementation_name": null,
        "is_contract": true,
        "is_verified": true,
        "metadata": null,
        "name": "ApeStaking",
        "private_tags": [],
        "public_tags": [],
        "watchlist_names": []
      },
      "tx_burnt_fee": null,
      "max_fee_per_gas": null,
      "result": "success",
      "hash": "0xcf02854dbb4adc4e4faedd8af4049194dae9788f17a5146680fc151afecd2ee2",
      "gas_price": "1000",
      "priority_fee": null,
      "base_fee_per_gas": null,
      "from": {
        "ens_domain_name": null,
        "hash": "0x9BD0883DB577Ed251234B5C87DF9d61E3BCE53D1",
        "implementation_name": null,
        "is_contract": false,
        "is_verified": false,
        "metadata": null,
        "name": null,
        "private_tags": [],
        "public_tags": [],
        "watchlist_names": []
      },
      "token_transfers": null,
      "tx_types": [
        "contract_call",
        "token_transfer"
      ],
      "gas_used": "106088",
      "created_contract": null,
      "position": 0,
      "nonce": 83,
      "has_error_in_internal_txs": null,
      "actions": [],
      "decoded_input": {
        "method_call": "stake(uint256 amount)",
        "method_id": "a694fc3a",
        "parameters": [
          {
            "name": "amount",
            "type": "uint256",
            "value": "23753000000000"
          }
        ]
      },
      "token_transfers_overflow": null,
      "raw_input": "0xa694fc3a0000000000000000000000000000000000000000000000000000159a6d209a00",
      "value": "0",
      "max_priority_fee_per_gas": null,
      "revert_reason": null,
      "confirmation_duration": [
        0,
        1000
      ],
      "tx_tag": null
    },
    {
      "timestamp": "2024-05-18T18:39:03.000000Z",
      "fee": {
        "type": "actual",
        "value": "63591000"
      },
      "gas_limit": "112468",
      "block": 18858952,
      "status": "ok",
      "method": "claimRewards",
      "confirmations": 1302006,
      "type": 0,
      "exchange_rate": "0.094151",
      "to": {
        "ens_domain_name": null,
        "hash": "0xe042DC9d91B5ce6E63579ae1287E993cDf41F8cE",
        "implementation_name": null,
        "is_contract": true,
        "is_verified": true,
        "metadata": null,
        "name": "ApeStaking",
        "private_tags": [],
        "public_tags": [],
        "watchlist_names": []
      },
      "tx_burnt_fee": null,
      "max_fee_per_gas": null,
      "result": "success",
      "hash": "0x9b7fd1af311451abbe6f2acc59bf6fc649445d701820c4c47ce13b14b323140a",
      "gas_price": "1000",
      "priority_fee": null,
      "base_fee_per_gas": null,
      "from": {
        "ens_domain_name": null,
        "hash": "0x6a8c9CeCD93E84E6764c49c7a5355Fae9ab514f2",
        "implementation_name": null,
        "is_contract": false,
        "is_verified": false,
        "metadata": null,
        "name": null,
        "private_tags": [],
        "public_tags": [],
        "watchlist_names": []
      },
      "token_transfers": null,
      "tx_types": [
        "contract_call"
      ],
      "gas_used": "63591",
      "created_contract": null,
      "position": 0,
      "nonce": 2818,
      "has_error_in_internal_txs": null,
      "actions": [],
      "decoded_input": {
        "method_call": "claimRewards()",
        "method_id": "372500ab",
        "parameters": []
      },
      "token_transfers_overflow": null,
      "raw_input": "0x372500ab",
      "value": "0",
      "max_priority_fee_per_gas": null,
      "revert_reason": null,
      "confirmation_duration": [
        0,
        1000
      ],
      "tx_tag": null
    },
    {
      "timestamp": "2024-05-18T14:33:31.000000Z",
      "fee": {
        "type": "actual",
        "value": "600495000000000"
      },
      "gas_limit": "157623",
      "block": 18844220,
      "status": "ok",
      "method": "stake",
      "confirmations": 1316738,
      "type": 0,
      "exchange_rate": "0.094151",
      "to": {
        "ens_domain_name": null,
        "hash": "0xe042DC9d91B5ce6E63579ae1287E993cDf41F8cE",
        "implementation_name": null,
        "is_contract": true,
        "is_verified": true,
        "metadata": null,
        "name": "ApeStaking",
        "private_tags": [],
        "public_tags": [],
        "watchlist_names": []
      },
      "tx_burnt_fee": null,
      "max_fee_per_gas": null,
      "result": "success",
      "hash": "0x2056ee79adff8051f2e7639fd1247084e7dc67fce1e0e720d19d70ccaf8d9c21",
      "gas_price": "5000000000",
      "priority_fee": null,
      "base_fee_per_gas": null,
      "from": {
        "ens_domain_name": null,
        "hash": "0x843243fEc3dC46d9EF242a138Bcb5E3dcE5FFd10",
        "implementation_name": null,
        "is_contract": false,
        "is_verified": false,
        "metadata": null,
        "name": null,
        "private_tags": [],
        "public_tags": [],
        "watchlist_names": []
      },
      "token_transfers": null,
      "tx_types": [
        "contract_call",
        "token_transfer"
      ],
      "gas_used": "120099",
      "created_contract": null,
      "position": 0,
      "nonce": 1,
      "has_error_in_internal_txs": null,
      "actions": [],
      "decoded_input": {
        "method_call": "stake(uint256 amount)",
        "method_id": "a694fc3a",
        "parameters": [
          {
            "name": "amount",
            "type": "uint256",
            "value": "5000000000000000000"
          }
        ]
      },
      "token_transfers_overflow": null,
      "raw_input": "0xa694fc3a0000000000000000000000000000000000000000000000004563918244f40000",
      "value": "0",
      "max_priority_fee_per_gas": null,
      "revert_reason": null,
      "confirmation_duration": [
        0,
        1000
      ],
      "tx_tag": null
    },
    {
      "timestamp": "2024-05-18T14:31:09.000000Z",
      "fee": {
        "type": "actual",
        "value": "215979000000000"
      },
      "gas_limit": "186860",
      "block": 18844078,
      "status": "ok",
      "method": "unstake",
      "confirmations": 1316880,
      "type": 0,
      "exchange_rate": "0.094151",
      "to": {
        "ens_domain_name": null,
        "hash": "0xe042DC9d91B5ce6E63579ae1287E993cDf41F8cE",
        "implementation_name": null,
        "is_contract": true,
        "is_verified": true,
        "metadata": null,
        "name": "ApeStaking",
        "private_tags": [],
        "public_tags": [],
        "watchlist_names": []
      },
      "tx_burnt_fee": null,
      "max_fee_per_gas": null,
      "result": "success",
      "hash": "0x2511671f6c582f73ccf99b86bb3e542a9e960004e7784d4043be3cd1ccb8ad5c",
      "gas_price": "1500000000",
      "priority_fee": null,
      "base_fee_per_gas": null,
      "from": {
        "ens_domain_name": null,
        "hash": "0x6a126b6871FEFB6F95082D10E8857d28A2e00B0f",
        "implementation_name": null,
        "is_contract": false,
        "is_verified": false,
        "metadata": null,
        "name": null,
        "private_tags": [],
        "public_tags": [],
        "watchlist_names": []
      },
      "token_transfers": null,
      "tx_types": [
        "contract_call",
        "token_transfer"
      ],
      "gas_used": "143986",
      "created_contract": null,
      "position": 0,
      "nonce": 188,
      "has_error_in_internal_txs": null,
      "actions": [],
      "decoded_input": {
        "method_call": "unstake(uint256 amount)",
        "method_id": "2e17de78",
        "parameters": [
          {
            "name": "amount",
            "type": "uint256",
            "value": "5000000000000000000"
          }
        ]
      },
      "token_transfers_overflow": null,
      "raw_input": "0x2e17de780000000000000000000000000000000000000000000000004563918244f40000",
      "value": "0",
      "max_priority_fee_per_gas": null,
      "revert_reason": null,
      "confirmation_duration": [
        0,
        1000
      ],
      "tx_tag": null
    },
    {
      "timestamp": "2024-05-18T13:51:45.000000Z",
      "fee": {
        "type": "actual",
        "value": "120099000"
      },
      "gas_limit": "157623",
      "block": 18841714,
      "status": "ok",
      "method": "stake",
      "confirmations": 1319244,
      "type": 0,
      "exchange_rate": "0.094151",
      "to": {
        "ens_domain_name": null,
        "hash": "0xe042DC9d91B5ce6E63579ae1287E993cDf41F8cE",
        "implementation_name": null,
        "is_contract": true,
        "is_verified": true,
        "metadata": null,
        "name": "ApeStaking",
        "private_tags": [],
        "public_tags": [],
        "watchlist_names": []
      },
      "tx_burnt_fee": null,
      "max_fee_per_gas": null,
      "result": "success",
      "hash": "0xa8a899f0dc4e91efac3d0ac978f329fc2dc041253ca22dbc543dba8fb1d76101",
      "gas_price": "1000",
      "priority_fee": null,
      "base_fee_per_gas": null,
      "from": {
        "ens_domain_name": null,
        "hash": "0xabE603A6b162f468E49bd42D0A1261e1c7ddec00",
        "implementation_name": null,
        "is_contract": false,
        "is_verified": false,
        "metadata": null,
        "name": null,
        "private_tags": [],
        "public_tags": [],
        "watchlist_names": []
      },
      "token_transfers": null,
      "tx_types": [
        "contract_call",
        "token_transfer"
      ],
      "gas_used": "120099",
      "created_contract": null,
      "position": 0,
      "nonce": 3,
      "has_error_in_internal_txs": null,
      "actions": [],
      "decoded_input": {
        "method_call": "stake(uint256 amount)",
        "method_id": "a694fc3a",
        "parameters": [
          {
            "name": "amount",
            "type": "uint256",
            "value": "5000000000000000000"
          }
        ]
      },
      "token_transfers_overflow": null,
      "raw_input": "0xa694fc3a0000000000000000000000000000000000000000000000004563918244f40000",
      "value": "0",
      "max_priority_fee_per_gas": null,
      "revert_reason": null,
      "confirmation_duration": [
        0,
        1000
      ],
      "tx_tag": null
    },
    {
      "timestamp": "2024-05-18T13:41:27.000000Z",
      "fee": {
        "type": "actual",
        "value": "143986000"
      },
      "gas_limit": "186860",
      "block": 18841096,
      "status": "ok",
      "method": "unstake",
      "confirmations": 1319862,
      "type": 0,
      "exchange_rate": "0.094151",
      "to": {
        "ens_domain_name": null,
        "hash": "0xe042DC9d91B5ce6E63579ae1287E993cDf41F8cE",
        "implementation_name": null,
        "is_contract": true,
        "is_verified": true,
        "metadata": null,
        "name": "ApeStaking",
        "private_tags": [],
        "public_tags": [],
        "watchlist_names": []
      },
      "tx_burnt_fee": null,
      "max_fee_per_gas": null,
      "result": "success",
      "hash": "0xb9927e0a80b0cf804eba0e4788cd4a1e98760a1e49743faa9913ae685f865077",
      "gas_price": "1000",
      "priority_fee": null,
      "base_fee_per_gas": null,
      "from": {
        "ens_domain_name": null,
        "hash": "0xeF017ecf43D4AfD3731156F5daf3Ad02D1c634a8",
        "implementation_name": null,
        "is_contract": false,
        "is_verified": false,
        "metadata": null,
        "name": null,
        "private_tags": [],
        "public_tags": [],
        "watchlist_names": []
      },
      "token_transfers": null,
      "tx_types": [
        "contract_call",
        "token_transfer"
      ],
      "gas_used": "143986",
      "created_contract": null,
      "position": 0,
      "nonce": 306,
      "has_error_in_internal_txs": null,
      "actions": [],
      "decoded_input": {
        "method_call": "unstake(uint256 amount)",
        "method_id": "2e17de78",
        "parameters": [
          {
            "name": "amount",
            "type": "uint256",
            "value": "5000000000000000000"
          }
        ]
      },
      "token_transfers_overflow": null,
      "raw_input": "0x2e17de780000000000000000000000000000000000000000000000004563918244f40000",
      "value": "0",
      "max_priority_fee_per_gas": null,
      "revert_reason": null,
      "confirmation_duration": [
        0,
        1000
      ],
      "tx_tag": null
    },
    {
      "timestamp": "2024-05-17T17:15:12.000000Z",
      "fee": {
        "type": "actual",
        "value": "63591000"
      },
      "gas_limit": "112468",
      "block": 18767524,
      "status": "ok",
      "method": "claimRewards",
      "confirmations": 1393434,
      "type": 0,
      "exchange_rate": "0.094151",
      "to": {
        "ens_domain_name": null,
        "hash": "0xe042DC9d91B5ce6E63579ae1287E993cDf41F8cE",
        "implementation_name": null,
        "is_contract": true,
        "is_verified": true,
        "metadata": null,
        "name": "ApeStaking",
        "private_tags": [],
        "public_tags": [],
        "watchlist_names": []
      },
      "tx_burnt_fee": null,
      "max_fee_per_gas": null,
      "result": "success",
      "hash": "0x4f7d62708e8081efd8a629e999e26c06a4fc91956a4700a2f0f8548d06b4b6c4",
      "gas_price": "1000",
      "priority_fee": null,
      "base_fee_per_gas": null,
      "from": {
        "ens_domain_name": null,
        "hash": "0x6a8c9CeCD93E84E6764c49c7a5355Fae9ab514f2",
        "implementation_name": null,
        "is_contract": false,
        "is_verified": false,
        "metadata": null,
        "name": null,
        "private_tags": [],
        "public_tags": [],
        "watchlist_names": []
      },
      "token_transfers": null,
      "tx_types": [
        "contract_call"
      ],
      "gas_used": "63591",
      "created_contract": null,
      "position": 0,
      "nonce": 2812,
      "has_error_in_internal_txs": null,
      "actions": [],
      "decoded_input": {
        "method_call": "claimRewards()",
        "method_id": "372500ab",
        "parameters": []
      },
      "token_transfers_overflow": null,
      "raw_input": "0x372500ab",
      "value": "0",
      "max_priority_fee_per_gas": null,
      "revert_reason": null,
      "confirmation_duration": [
        0,
        1000
      ],
      "tx_tag": null
    },
    {
      "timestamp": "2024-05-17T11:01:49.000000Z",
      "fee": {
        "type": "actual",
        "value": "63591000"
      },
      "gas_limit": "89975",
      "block": 18745121,
      "status": "ok",
      "method": "claimRewards",
      "confirmations": 1415837,
      "type": 0,
      "exchange_rate": "0.094151",
      "to": {
        "ens_domain_name": null,
        "hash": "0xe042DC9d91B5ce6E63579ae1287E993cDf41F8cE",
        "implementation_name": null,
        "is_contract": true,
        "is_verified": true,
        "metadata": null,
        "name": "ApeStaking",
        "private_tags": [],
        "public_tags": [],
        "watchlist_names": []
      },
      "tx_burnt_fee": null,
      "max_fee_per_gas": null,
      "result": "success",
      "hash": "0x6e035cd383c491c5b1efaad30c91ce83960969e548b5b7c19df661e3fdb847c8",
      "gas_price": "1000",
      "priority_fee": null,
      "base_fee_per_gas": null,
      "from": {
        "ens_domain_name": null,
        "hash": "0x27d9096a890fEACFd378dF7319b41E16Cae5C697",
        "implementation_name": null,
        "is_contract": false,
        "is_verified": false,
        "metadata": null,
        "name": null,
        "private_tags": [],
        "public_tags": [],
        "watchlist_names": []
      },
      "token_transfers": null,
      "tx_types": [
        "contract_call"
      ],
      "gas_used": "63591",
      "created_contract": null,
      "position": 0,
      "nonce": 704,
      "has_error_in_internal_txs": null,
      "actions": [],
      "decoded_input": {
        "method_call": "claimRewards()",
        "method_id": "372500ab",
        "parameters": []
      },
      "token_transfers_overflow": null,
      "raw_input": "0x372500ab",
      "value": "0",
      "max_priority_fee_per_gas": null,
      "revert_reason": null,
      "confirmation_duration": [
        0,
        1000
      ],
      "tx_tag": null
    }
  ],
  "next_page_params": {
    "block_number": 18745121,
    "fee": "63591000",
    "hash": "0x6e035cd383c491c5b1efaad30c91ce83960969e548b5b7c19df661e3fdb847c8",
    "index": 0,
    "inserted_at": "2024-05-17T11:01:49.517413Z",
    "items_count": 50,
    "value": "0"
  }
}